:020000040000fa
:080000000001040000000000f3
:020000040000fa
:0400080030020000c2
:020000040000fa
:04000c0030020000be
:020000040000fa
:0400100030020000ba
:020000040000fa
:0400140030020000b6
:020000040000fa
:0400180030020000b2
:020000040000fa
:04001c0030020000ae
:020000040000fa
:0400200030020000aa
:020000040000fa
:0400240030020000a6
:020000040000fa
:0400280030020000a2
:020000040000fa
:04002c00300200009e
:020000040000fa
:04003000300200009a
:020000040000fa
:0400340008020000be
:020000040000fa
:040038003002000092
:020000040000fa
:04003c00300200008e
:020000040000fa
:04004000300200008a
:020000040000fa
:040044003002000086
:020000040000fa
:040048003002000082
:020000040000fa
:04004c00300200007e
:020000040000fa
:04005000300200007a
:020000040000fa
:040054003002000076
:020000040000fa
:040058003002000072
:020000040000fa
:04005c00300200006e
:020000040000fa
:04006000300200006a
:020000040000fa
:040064003002000066
:020000040000fa
:040068003002000062
:020000040000fa
:04006c00300200005e
:020000040000fa
:04007000300200005a
:020000040000fa
:040074003002000056
:020000040000fa
:040078003002000052
:020000040000fa
:04007c00300200004e
:020000040000fa
:04008000300200004a
:020000040000fa
:040084003002000046
:020000040000fa
:040088003002000042
:020000040000fa
:04008c00300200003e
:020000040000fa
:04009000300200003a
:020000040000fa
:040094003002000036
:020000040000fa
:040098003002000032
:020000040000fa
:04009c00300200002e
:020000040000fa
:0400a000300200002a
:020000040000fa
:0400a4003002000026
:020000040000fa
:0400a8003002000022
:020000040000fa
:0400ac00300200001e
:020000040000fa
:0400b000300200001a
:020000040000fa
:0400b4003002000016
:020000040000fa
:0400b8003002000012
:020000040000fa
:0400bc00300200000e
:020000040000fa
:0400c000300200000a
:020000040000fa
:0400c4003002000006
:020000040000fa
:0400c8003002000002
:020000040000fa
:0400cc0030020000fe
:020000040000fa
:0400d00030020000fa
:020000040000fa
:0400d40030020000f6
:020000040000fa
:0400d80030020000f2
:020000040000fa
:0400dc0030020000ee
:020000040000fa
:0400e00030020000ea
:020000040000fa
:0400e40030020000e6
:020000040000fa
:0400e80030020000e2
:020000040000fa
:0400ec0030020000de
:020000040000fa
:0400f00030020000da
:020000040000fa
:0400f40030020000d6
:020000040000fa
:0400f80030020000d2
:020000040000fa
:0400fc0030020000ce
:020000040000fa
:0401000030020000c9
:020000040000fa
:0401040030020000c5
:020000040000fa
:0401080030020000c1
:020000040000fa
:04010c0030020000bd
:020000040000fa
:0401100030020000b9
:020000040000fa
:0401140030020000b5
:020000040000fa
:0401180030020000b1
:020000040000fa
:04011c0030020000ad
:020000040000fa
:0401200030020000a9
:020000040000fa
:0401240030020000a5
:020000040000fa
:0401280030020000a1
:020000040000fa
:04012c00300200009d
:020000040000fa
:040130003002000099
:020000040000fa
:040134003002000095
:020000040000fa
:040138003002000091
:020000040000fa
:04013c00300200008d
:020000040000fa
:040140003002000089
:020000040000fa
:040144003002000085
:020000040000fa
:040148003002000081
:020000040000fa
:04014c00300200007d
:020000040000fa
:040150003002000079
:020000040000fa
:040154003002000075
:020000040000fa
:040158003002000071
:020000040000fa
:04015c00300200006d
:020000040000fa
:040160003002000069
:020000040000fa
:040164003002000065
:020000040000fa
:040168003002000061
:020000040000fa
:04016c00300200005d
:020000040000fa
:040170003002000059
:020000040000fa
:040174003002000055
:020000040000fa
:040178003002000051
:020000040000fa
:04017c00300200004d
:020000040000fa
:040180003002000049
:020000040000fa
:040184003002000045
:020000040000fa
:040188003002000041
:020000040000fa
:04018c00300200003d
:020000040000fa
:040190003002000039
:020000040000fa
:040194003002000035
:020000040000fa
:040198003002000031
:020000040000fa
:04019c00300200002d
:020000040000fa
:0401a0003002000029
:020000040000fa
:0401a4003002000025
:020000040000fa
:0401a8003002000021
:020000040000fa
:0401ac00300200001d
:020000040000fa
:0401b0003002000019
:020000040000fa
:0401b4003002000015
:020000040000fa
:0401b8003002000011
:020000040000fa
:0401bc00300200000d
:020000040000fa
:0401c0003002000009
:020000040000fa
:0401c4003002000005
:020000040000fa
:0401c8003002000001
:020000040000fa
:0401cc0030020000fd
:020000040000fa
:0401d00030020000f9
:020000040000fa
:0401d40030020000f5
:020000040000fa
:0401d80030020000f1
:020000040000fa
:0401dc0030020000ed
:020000040000fa
:0401e00030020000e9
:020000040000fa
:0401e40030020000e5
:020000040000fa
:0401e80030020000e1
:020000040000fa
:0401ec0030020000dd
:020000040000fa
:0401f00030020000d9
:020000040000fa
:0401f40030020000d5
:020000040000fa
:0401f80030020000d1
:020000040000fa
:0401fc0030020000cd
:020000040000fa
:100200000f8020000eff27000e0188000000000074
:10021000000020000000e000020032000001200089
:100220002002880014000700d00007000000e00052
:1002300003003a0000002000010020000200370007
:100240000000200001002000810f7000010032003a
:1002500014000700000020000000e000020032004f
:1002600000000200000000005c030200000000002b
:100270000040da000000fe004440a90020002000f9
:100280000000e00003003200100020009001880010
:100290004440a800000006008a1f78008b1f7800e9
:1002a00000000600a1028800800478000000eb0036
:1002b0001f003700e284440054a0b4009905ba003e
:1002c000e284440054a0b4009906ba00e2844400d9
:1002d00054a0b4000006eb00476fde00fd07b2003b
:1002e000ae018800636ce10003003a00eaff0700fa
:1002f0000000eb000e003700606ce10008003a00df
:10030000004deb000a05e800020039003420ec0043
:100310000af0a0008b05e900f9ff3e000400370059
:100320006168e100010032000086eb000b0007006d
:1003300019c7ba001905ba000e04e00003003a001c
:100340000a00e000dbff3a0000000600fe07b200f2
:10035000ae0288008a047800f5ff37000cd0a300b5
:10036000e20f4d001c00390089027800354dba00bb
:100370000a05e800020039003420ec000af0a00071
:100380008b05e9000f003200254dba000a05e80090
:10039000020039003420ec000af0a0008b05e900cf
:1003a000080032000c00e0000600320015cdba0053
:1003b0000a05e800020039003420ec000af0a00031
:1003c0008b05e9008984e80054a0b4000b00e0002c
:1003d000e2ff3a00000006009902ba00055d7800cd
:1003e0008b05e900f7ff3200c82ade00055d7800c2
:1003f0008b05e900f3ff32000c00e000f1ff320052
:1004000019ddba00eeff37004603040000000000cb
:1004100000a0fe003200f8003400f800881f7800c9
:1004200018002000a801880018002000980188000a
:100430004f0478000000fa009021ef002033800084
:100440000000a200203388008860a9000080fa0024
:100450003400f9003200f9000080fe000040060080
:100460000040da000000fe000800fa0010079800c3
:10047000210798003207980000000000811d8000cd
:1004800000102000008060000000e000fbff320050
:10049000be009000010f78000e0037000000000041
:1004a000811d800000102000008060000000e0003e
:1004b000fbff32002e009000104078000000fb008f
:1004c000901d88002e0090000000e8002007980092
:1004d0001e0fe9001e0078000000e000efff3a0068
:1004e0003e0090000080fa00000006000a00fa00ba
:1004f000200798003107980042079800ce0090002e
:10050000010f78001100370000000000801d8000fe
:10051000610060000000e000fcff3200a01d8000d0
:10052000204798003e009000ae40900001487800bf
:100530003e0090000000e800300798002e40900038
:10054000ed4f5000050032001e0fe9001e0078003c
:100550000000e000ecff3a0001003700000000005e
:100560004e0090000080fa00000006000000050028
:020000040000fa
:100570000000fa0001088000f00b200000816000fc
:1005800060042000710520000310200080497800dd
:100590008149780082497800213f8000f00f2800cf
:1005a000808060000050200001007000203f880023
:1005b000b13d800000fc2f0000806000a000b3006f
:1005c000b03d880000088000000178000260a000b3
:1005d000600420007105200003102000804978008d
:1005e000814978008249780080002000701d8800d1
:1005f000b023ef0070062000b01d8800b823ef0084
:1006000060342000000001000080fa0000000600b5
:100610000000fa0000000000801d80006100600002
:100620000000e000fcff3200801d800062006000de
:100630000000e00001003200b023a900a01d8000ee
:10064000004078000080fa00000006000200fa0076
:10065000004f780000000000811d80000020200075
:10066000008060000000e000fbff3a001e80fb00fd
:10067000901d88000080fa00000006000000fa00cb
:10068000801d80000080fa00000006000000fa00d3
:10069000afe3a800b143a800b183a8000080fa002e
:1006a000000006000000fa00afe3a900b143a90072
:1006b0000080fa00000006000400fa00000f780035
:1006c00011079800aaff07009421ef009021ef0086
:1006d00040422f00900c880041058000f0ff280068
:1006e0000080600000c0a000400588008860a9006c
:1006f0009860a800a10c8000f0fc2f000080600032
:100700000050a000a00c880095e1a8006206a90096
:0807100083e0a800ffff3700a1
:020000040000fa
:020000040015e5
:047e0000ffffff0081
:020000040000fa
:020000040015e5
:047e2000ff1f000040
:020000040000fa
:020000040015e5
:047e3000f8ffff0058
:020000040000fa
:020000040015e5
:047e3800bfffff0089
:020000040000fa
:020000040015e5
:047e40009fffff00a1
:020000040000fa
:020000040015e5
:047e4800ffffff0039
:020000040000fa
:020000040015e5
:047e5000deffff0052
:020000040000fa
:020000040015e5
:047e5800ffffff0029
:00000001FF
